{
  "contractName": "VotingSystem",
  "abi": [
    {
      "inputs": [],
      "stateMutability": "nonpayable",
      "type": "constructor"
    },
    {
      "anonymous": false,
      "inputs": [
        {
          "indexed": false,
          "internalType": "address",
          "name": "voter",
          "type": "address"
        },
        {
          "indexed": false,
          "internalType": "uint256",
          "name": "candidateId",
          "type": "uint256"
        }
      ],
      "name": "Voted",
      "type": "event"
    },
    {
      "anonymous": false,
      "inputs": [
        {
          "indexed": false,
          "internalType": "uint256",
          "name": "endTime",
          "type": "uint256"
        }
      ],
      "name": "VotingEnded",
      "type": "event"
    },
    {
      "anonymous": false,
      "inputs": [
        {
          "indexed": false,
          "internalType": "uint256",
          "name": "startTime",
          "type": "uint256"
        }
      ],
      "name": "VotingStarted",
      "type": "event"
    },
    {
      "inputs": [
        {
          "internalType": "uint256",
          "name": "",
          "type": "uint256"
        }
      ],
      "name": "NIKs",
      "outputs": [
        {
          "internalType": "string",
          "name": "",
          "type": "string"
        }
      ],
      "stateMutability": "view",
      "type": "function",
      "constant": true
    },
    {
      "inputs": [],
      "name": "candidateCount",
      "outputs": [
        {
          "internalType": "uint256",
          "name": "",
          "type": "uint256"
        }
      ],
      "stateMutability": "view",
      "type": "function",
      "constant": true
    },
    {
      "inputs": [
        {
          "internalType": "uint256",
          "name": "",
          "type": "uint256"
        }
      ],
      "name": "candidates",
      "outputs": [
        {
          "internalType": "uint256",
          "name": "id",
          "type": "uint256"
        },
        {
          "internalType": "string",
          "name": "name",
          "type": "string"
        },
        {
          "internalType": "uint256",
          "name": "voteCount",
          "type": "uint256"
        }
      ],
      "stateMutability": "view",
      "type": "function",
      "constant": true
    },
    {
      "inputs": [],
      "name": "endVotingTime",
      "outputs": [
        {
          "internalType": "uint256",
          "name": "",
          "type": "uint256"
        }
      ],
      "stateMutability": "view",
      "type": "function",
      "constant": true
    },
    {
      "inputs": [],
      "name": "owner",
      "outputs": [
        {
          "internalType": "address",
          "name": "",
          "type": "address"
        }
      ],
      "stateMutability": "view",
      "type": "function",
      "constant": true
    },
    {
      "inputs": [],
      "name": "startVotingTime",
      "outputs": [
        {
          "internalType": "uint256",
          "name": "",
          "type": "uint256"
        }
      ],
      "stateMutability": "view",
      "type": "function",
      "constant": true
    },
    {
      "inputs": [],
      "name": "voterCount",
      "outputs": [
        {
          "internalType": "uint256",
          "name": "",
          "type": "uint256"
        }
      ],
      "stateMutability": "view",
      "type": "function",
      "constant": true
    },
    {
      "inputs": [],
      "name": "votesCount",
      "outputs": [
        {
          "internalType": "uint256",
          "name": "",
          "type": "uint256"
        }
      ],
      "stateMutability": "view",
      "type": "function",
      "constant": true
    },
    {
      "inputs": [],
      "name": "votingStarted",
      "outputs": [
        {
          "internalType": "bool",
          "name": "",
          "type": "bool"
        }
      ],
      "stateMutability": "view",
      "type": "function",
      "constant": true
    },
    {
      "inputs": [
        {
          "internalType": "uint256",
          "name": "_duration",
          "type": "uint256"
        }
      ],
      "name": "startVoting",
      "outputs": [],
      "stateMutability": "nonpayable",
      "type": "function"
    },
    {
      "inputs": [],
      "name": "endVoting",
      "outputs": [],
      "stateMutability": "nonpayable",
      "type": "function"
    },
    {
      "inputs": [
        {
          "internalType": "string",
          "name": "_name",
          "type": "string"
        },
        {
          "internalType": "uint256",
          "name": "_candidateId",
          "type": "uint256"
        }
      ],
      "name": "addCandidate",
      "outputs": [],
      "stateMutability": "nonpayable",
      "type": "function"
    },
    {
      "inputs": [
        {
          "internalType": "string",
          "name": "_NIK",
          "type": "string"
        }
      ],
      "name": "checkIfNIKNotRegistered",
      "outputs": [],
      "stateMutability": "nonpayable",
      "type": "function"
    },
    {
      "inputs": [
        {
          "internalType": "string",
          "name": "_NIK",
          "type": "string"
        }
      ],
      "name": "checkIfNIKRegistered",
      "outputs": [],
      "stateMutability": "nonpayable",
      "type": "function"
    },
    {
      "inputs": [
        {
          "internalType": "string",
          "name": "_NIK",
          "type": "string"
        }
      ],
      "name": "checkIfNIKHasUsed",
      "outputs": [],
      "stateMutability": "nonpayable",
      "type": "function"
    },
    {
      "inputs": [
        {
          "internalType": "uint256",
          "name": "_candidateId",
          "type": "uint256"
        }
      ],
      "name": "checkIfCandidateValid",
      "outputs": [],
      "stateMutability": "nonpayable",
      "type": "function"
    },
    {
      "inputs": [
        {
          "internalType": "string",
          "name": "_NIK",
          "type": "string"
        }
      ],
      "name": "addNIK",
      "outputs": [],
      "stateMutability": "nonpayable",
      "type": "function"
    },
    {
      "inputs": [
        {
          "internalType": "string",
          "name": "_NIK",
          "type": "string"
        }
      ],
      "name": "removeNIK",
      "outputs": [],
      "stateMutability": "nonpayable",
      "type": "function"
    },
    {
      "inputs": [
        {
          "internalType": "uint256",
          "name": "_candidateId",
          "type": "uint256"
        },
        {
          "internalType": "string",
          "name": "_NIK",
          "type": "string"
        }
      ],
      "name": "vote",
      "outputs": [],
      "stateMutability": "nonpayable",
      "type": "function"
    },
    {
      "inputs": [
        {
          "internalType": "uint256",
          "name": "_candidateId",
          "type": "uint256"
        }
      ],
      "name": "getCandidate",
      "outputs": [
        {
          "internalType": "uint256",
          "name": "",
          "type": "uint256"
        },
        {
          "internalType": "string",
          "name": "",
          "type": "string"
        },
        {
          "internalType": "uint256",
          "name": "",
          "type": "uint256"
        }
      ],
      "stateMutability": "view",
      "type": "function",
      "constant": true
    },
    {
      "inputs": [],
      "name": "getAllCandidates",
      "outputs": [
        {
          "components": [
            {
              "internalType": "uint256",
              "name": "id",
              "type": "uint256"
            },
            {
              "internalType": "string",
              "name": "name",
              "type": "string"
            },
            {
              "internalType": "uint256",
              "name": "voteCount",
              "type": "uint256"
            }
          ],
          "internalType": "struct VotingSystem.Candidate[]",
          "name": "",
          "type": "tuple[]"
        }
      ],
      "stateMutability": "view",
      "type": "function",
      "constant": true
    },
    {
      "inputs": [],
      "name": "getVoter",
      "outputs": [
        {
          "internalType": "bool",
          "name": "",
          "type": "bool"
        },
        {
          "internalType": "uint256",
          "name": "",
          "type": "uint256"
        },
        {
          "internalType": "string",
          "name": "",
          "type": "string"
        }
      ],
      "stateMutability": "view",
      "type": "function",
      "constant": true
    },
    {
      "inputs": [],
      "name": "getAllNIKs",
      "outputs": [
        {
          "internalType": "string[]",
          "name": "",
          "type": "string[]"
        }
      ],
      "stateMutability": "view",
      "type": "function",
      "constant": true
    },
    {
      "inputs": [],
      "name": "getVoterCount",
      "outputs": [
        {
          "internalType": "uint256",
          "name": "",
          "type": "uint256"
        }
      ],
      "stateMutability": "view",
      "type": "function",
      "constant": true
    },
    {
      "inputs": [],
      "name": "getVotesCount",
      "outputs": [
        {
          "internalType": "uint256",
          "name": "",
          "type": "uint256"
        }
      ],
      "stateMutability": "view",
      "type": "function",
      "constant": true
    },
    {
      "inputs": [],
      "name": "getVotingStatus",
      "outputs": [
        {
          "internalType": "bool",
          "name": "",
          "type": "bool"
        },
        {
          "internalType": "uint256",
          "name": "",
          "type": "uint256"
        },
        {
          "internalType": "uint256",
          "name": "",
          "type": "uint256"
        }
      ],
      "stateMutability": "view",
      "type": "function",
      "constant": true
    },
    {
      "inputs": [],
      "name": "checkIsVotingEnd",
      "outputs": [],
      "stateMutability": "nonpayable",
      "type": "function"
    }
  ],
  "bytecode": "0x608060405234801561001057600080fd5b50336000806101000a81548173ffffffffffffffffffffffffffffffffffffffff021916908373ffffffffffffffffffffffffffffffffffffffff160217905550613021806100606000396000f3fe608060405234801561001057600080fd5b50600436106101a95760003560e01c8063581c281c116100f9578063ae1b512a11610097578063c8a0f0c311610071578063c8a0f0c31461046a578063c8bb860814610488578063e23cec7b146104a4578063f74eafe3146104c0576101a9565b8063ae1b512a14610414578063c3403ddf14610430578063c813d68a1461043a576101a9565b80638da5cb5b116100d35780638da5cb5b146103b257806391f4d1d7146103d0578063a91780ae146103ec578063a9a981a3146103f6576101a9565b8063581c281c1461035657806383d948b7146103765780638778b27d14610394576101a9565b806324108475116101665780633477ee2e116101405780633477ee2e146102b857806335b8e820146102ea5780633d2f5bda1461031c57806342169e4814610338576101a9565b8063241084751461025e5780632b37f53c1461027a5780632e6997fe1461029a576101a9565b806303e5e56d146101ae5780630721957f146101ca57806311174a29146101e65780631961847b146102045780631b605b86146102225780631f8922f314610240575b600080fd5b6101c860048036038101906101c39190611f6c565b6104dc565b005b6101e460048036038101906101df9190611f6c565b6108ba565b005b6101ee610ae2565b6040516101fb9190612893565b60405180910390f35b61020c610aec565b6040516102199190612893565b60405180910390f35b61022a610af2565b6040516102379190612893565b60405180910390f35b610248610afc565b6040516102559190612893565b60405180910390f35b6102786004803603810190610273919061202a565b610b02565b005b610282610f8c565b6040516102919392919061261c565b60405180910390f35b6102a26110b1565b6040516102af91906125df565b60405180910390f35b6102d260048036038101906102cd9190612001565b611272565b6040516102e1939291906128ae565b60405180910390f35b61030460048036038101906102ff9190612001565b611324565b604051610313939291906128ae565b60405180910390f35b61033660048036038101906103319190612001565b611451565b005b6103406115ee565b60405161034d9190612893565b60405180910390f35b61035e6115f4565b60405161036d9392919061265a565b60405180910390f35b61037e61161a565b60405161038b9190612601565b60405180910390f35b61039c61162d565b6040516103a99190612893565b60405180910390f35b6103ba611633565b6040516103c79190612579565b60405180910390f35b6103ea60048036038101906103e59190611f6c565b611657565b005b6103f46116c8565b005b6103fe61173f565b60405161040b9190612893565b60405180910390f35b61042e60048036038101906104299190611f6c565b611745565b005b6104386117b5565b005b610454600480360381019061044f9190612001565b611902565b6040516104619190612691565b60405180910390f35b6104726119ae565b60405161047f91906125bd565b60405180910390f35b6104a2600480360381019061049d9190612001565b611a87565b005b6104be60048036038101906104b99190611fad565b611ae6565b005b6104da60048036038101906104d59190611f6c565b611ced565b005b60008054906101000a900473ffffffffffffffffffffffffffffffffffffffff1673ffffffffffffffffffffffffffffffffffffffff163373ffffffffffffffffffffffffffffffffffffffff161461056a576040517f08c379a000000000000000000000000000000000000000000000000000000000815260040161056190612713565b60405180910390fd5b600960009054906101000a900460ff1615806105875750600a5442105b6105c6576040517f08c379a00000000000000000000000000000000000000000000000000000000081526004016105bd906127d3565b60405180910390fd5b806007816040516105d7919061254b565b908152602001604051809103902060009054906101000a900460ff1615610633576040517f08c379a000000000000000000000000000000000000000000000000000000000815260040161062a90612813565b60405180910390fd5b81600681604051610644919061254b565b908152602001604051809103902060009054906101000a900460ff1661069f576040517f08c379a000000000000000000000000000000000000000000000000000000000815260040161069690612773565b60405180910390fd5b60006006846040516106b1919061254b565b908152602001604051809103902060006101000a81548160ff02191690831515021790555060005b6008805490508110156108b457836040516020016106f7919061254b565b6040516020818303038152906040528051906020012060088281548110610747577f4e487b7100000000000000000000000000000000000000000000000000000000600052603260045260246000fd5b906000526020600020016040516020016107619190612562565b6040516020818303038152906040528051906020012014156108a157600860016008805490506107919190612a57565b815481106107c8577f4e487b7100000000000000000000000000000000000000000000000000000000600052603260045260246000fd5b906000526020600020016008828154811061080c577f4e487b7100000000000000000000000000000000000000000000000000000000600052603260045260246000fd5b9060005260206000200190805461082290612b3f565b61082d929190611d5e565b506008805480610866577f4e487b7100000000000000000000000000000000000000000000000000000000600052603160045260246000fd5b6001900381819060005260206000200160006108829190611deb565b90556002600081548092919061089790612b15565b91905055506108b4565b80806108ac90612ba2565b9150506106d9565b50505050565b60008054906101000a900473ffffffffffffffffffffffffffffffffffffffff1673ffffffffffffffffffffffffffffffffffffffff163373ffffffffffffffffffffffffffffffffffffffff1614610948576040517f08c379a000000000000000000000000000000000000000000000000000000000815260040161093f90612713565b60405180910390fd5b600960009054906101000a900460ff1615806109655750600a5442105b6109a4576040517f08c379a000000000000000000000000000000000000000000000000000000000815260040161099b906127d3565b60405180910390fd5b60008151116109e8576040517f08c379a00000000000000000000000000000000000000000000000000000000081526004016109df906126b3565b60405180910390fd5b6006816040516109f8919061254b565b908152602001604051809103902060009054906101000a900460ff1615610a54576040517f08c379a0000000000000000000000000000000000000000000000000000000008152600401610a4b90612833565b60405180910390fd5b6001600682604051610a66919061254b565b908152602001604051809103902060006101000a81548160ff021916908315150217905550600881908060018154018082558091505060019003906000526020600020016000909190919091509080519060200190610ac6929190611e2b565b5060026000815480929190610ada90612ba2565b919050555050565b6000600254905090565b600b5481565b6000600354905090565b600a5481565b60008054906101000a900473ffffffffffffffffffffffffffffffffffffffff1673ffffffffffffffffffffffffffffffffffffffff163373ffffffffffffffffffffffffffffffffffffffff161415610b91576040517f08c379a0000000000000000000000000000000000000000000000000000000008152600401610b88906127b3565b60405180910390fd5b600960009054906101000a900460ff168015610bae5750600b5442115b15610c06576000600960006101000a81548160ff0219169083151502179055507f81eb7415440ff8e6c8e92606fd3b0e5e6a5c99ea90cdb63b41aec54e897312b342604051610bfd9190612893565b60405180910390a15b600960009054906101000a900460ff168015610c245750600a544210155b8015610c325750600b544211155b610c71576040517f08c379a0000000000000000000000000000000000000000000000000000000008152600401610c6890612793565b60405180910390fd5b600560003373ffffffffffffffffffffffffffffffffffffffff1673ffffffffffffffffffffffffffffffffffffffff16815260200190815260200160002060000160009054906101000a900460ff1615610d01576040517f08c379a0000000000000000000000000000000000000000000000000000000008152600401610cf890612873565b60405180910390fd5b80600681604051610d12919061254b565b908152602001604051809103902060009054906101000a900460ff16610d6d576040517f08c379a0000000000000000000000000000000000000000000000000000000008152600401610d6490612773565b60405180910390fd5b81600781604051610d7e919061254b565b908152602001604051809103902060009054906101000a900460ff1615610dda576040517f08c379a0000000000000000000000000000000000000000000000000000000008152600401610dd190612813565b60405180910390fd5b600084118015610dec57506001548411155b610e2b576040517f08c379a0000000000000000000000000000000000000000000000000000000008152600401610e2290612853565b60405180910390fd5b604051806060016040528060011515815260200185815260200184815250600560003373ffffffffffffffffffffffffffffffffffffffff1673ffffffffffffffffffffffffffffffffffffffff16815260200190815260200160002060008201518160000160006101000a81548160ff021916908315150217905550602082015181600101556040820151816002019080519060200190610ece929190611e2b565b50905050600460008581526020019081526020016000206002016000815480929190610ef990612ba2565b91905055506001600784604051610f10919061254b565b908152602001604051809103902060006101000a81548160ff02191690831515021790555060036000815480929190610f4890612ba2565b91905055507f4d99b957a2bc29a30ebd96a7be8e68fe50a3c701db28a91436490b7d53870ca43385604051610f7e929190612594565b60405180910390a150505050565b60008060606000600560003373ffffffffffffffffffffffffffffffffffffffff1673ffffffffffffffffffffffffffffffffffffffff1681526020019081526020016000206040518060600160405290816000820160009054906101000a900460ff161515151581526020016001820154815260200160028201805461101290612b3f565b80601f016020809104026020016040519081016040528092919081815260200182805461103e90612b3f565b801561108b5780601f106110605761010080835404028352916020019161108b565b820191906000526020600020905b81548152906001019060200180831161106e57829003601f168201915b505050505081525050905080600001518160200151826040015193509350935050909192565b6060600060015467ffffffffffffffff8111156110f7577f4e487b7100000000000000000000000000000000000000000000000000000000600052604160045260246000fd5b60405190808252806020026020018201604052801561113057816020015b61111d611eb1565b8152602001906001900390816111155790505b5090506000600190505b600154811161126a57600460008281526020019081526020016000206040518060600160405290816000820154815260200160018201805461117b90612b3f565b80601f01602080910402602001604051908101604052809291908181526020018280546111a790612b3f565b80156111f45780601f106111c9576101008083540402835291602001916111f4565b820191906000526020600020905b8154815290600101906020018083116111d757829003601f168201915b50505050508152602001600282015481525050826001836112159190612a57565b8151811061124c577f4e487b7100000000000000000000000000000000000000000000000000000000600052603260045260246000fd5b6020026020010181905250808061126290612ba2565b91505061113a565b508091505090565b600460205280600052604060002060009150905080600001549080600101805461129b90612b3f565b80601f01602080910402602001604051908101604052809291908181526020018280546112c790612b3f565b80156113145780601f106112e957610100808354040283529160200191611314565b820191906000526020600020905b8154815290600101906020018083116112f757829003601f168201915b5050505050908060020154905083565b60006060600080841161136c576040517f08c379a000000000000000000000000000000000000000000000000000000000815260040161136390612853565b60405180910390fd5b600060046000868152602001908152602001600020604051806060016040529081600082015481526020016001820180546113a690612b3f565b80601f01602080910402602001604051908101604052809291908181526020018280546113d290612b3f565b801561141f5780601f106113f45761010080835404028352916020019161141f565b820191906000526020600020905b81548152906001019060200180831161140257829003601f168201915b505050505081526020016002820154815250509050806000015181602001518260400151935093509350509193909250565b60008054906101000a900473ffffffffffffffffffffffffffffffffffffffff1673ffffffffffffffffffffffffffffffffffffffff163373ffffffffffffffffffffffffffffffffffffffff16146114df576040517f08c379a00000000000000000000000000000000000000000000000000000000081526004016114d690612713565b60405180910390fd5b600960009054906101000a900460ff1615806114fc5750600a5442105b61153b576040517f08c379a0000000000000000000000000000000000000000000000000000000008152600401611532906127d3565b60405180910390fd5b6000811161157e576040517f08c379a0000000000000000000000000000000000000000000000000000000008152600401611575906127f3565b60405180910390fd5b6001600960006101000a81548160ff02191690831515021790555042600a8190555080426115ac9190612a01565b600b819055507fcf33babc496bb6dc2942b39cb7b75766bbbadf7da50d176ff8c513e991140239600a546040516115e39190612893565b60405180910390a150565b60025481565b6000806000600960009054906101000a900460ff16600a54600b54925092509250909192565b600960009054906101000a900460ff1681565b60035481565b60008054906101000a900473ffffffffffffffffffffffffffffffffffffffff1681565b80600781604051611668919061254b565b908152602001604051809103902060009054906101000a900460ff16156116c4576040517f08c379a00000000000000000000000000000000000000000000000000000000081526004016116bb90612813565b60405180910390fd5b5050565b600960009054906101000a900460ff1680156116e55750600b5442115b1561173d576000600960006101000a81548160ff0219169083151502179055507f81eb7415440ff8e6c8e92606fd3b0e5e6a5c99ea90cdb63b41aec54e897312b3426040516117349190612893565b60405180910390a15b565b60015481565b80600681604051611756919061254b565b908152602001604051809103902060009054906101000a900460ff166117b1576040517f08c379a00000000000000000000000000000000000000000000000000000000081526004016117a890612773565b60405180910390fd5b5050565b60008054906101000a900473ffffffffffffffffffffffffffffffffffffffff1673ffffffffffffffffffffffffffffffffffffffff163373ffffffffffffffffffffffffffffffffffffffff1614611843576040517f08c379a000000000000000000000000000000000000000000000000000000000815260040161183a90612713565b60405180910390fd5b600960009054906101000a900460ff1680156118615750600a544210155b801561186f5750600b544211155b6118ae576040517f08c379a00000000000000000000000000000000000000000000000000000000081526004016118a590612793565b60405180910390fd5b6000600960006101000a81548160ff0219169083151502179055507f81eb7415440ff8e6c8e92606fd3b0e5e6a5c99ea90cdb63b41aec54e897312b3426040516118f89190612893565b60405180910390a1565b6008818154811061191257600080fd5b90600052602060002001600091509050805461192d90612b3f565b80601f016020809104026020016040519081016040528092919081815260200182805461195990612b3f565b80156119a65780601f1061197b576101008083540402835291602001916119a6565b820191906000526020600020905b81548152906001019060200180831161198957829003601f168201915b505050505081565b60606008805480602002602001604051908101604052809291908181526020016000905b82821015611a7e5783829060005260206000200180546119f190612b3f565b80601f0160208091040260200160405190810160405280929190818152602001828054611a1d90612b3f565b8015611a6a5780601f10611a3f57610100808354040283529160200191611a6a565b820191906000526020600020905b815481529060010190602001808311611a4d57829003601f168201915b5050505050815260200190600101906119d2565b50505050905090565b80600060046000838152602001908152602001600020600001541415611ae2576040517f08c379a0000000000000000000000000000000000000000000000000000000008152600401611ad9906126f3565b60405180910390fd5b5050565b60008054906101000a900473ffffffffffffffffffffffffffffffffffffffff1673ffffffffffffffffffffffffffffffffffffffff163373ffffffffffffffffffffffffffffffffffffffff1614611b74576040517f08c379a0000000000000000000000000000000000000000000000000000000008152600401611b6b90612713565b60405180910390fd5b600960009054906101000a900460ff161580611b915750600a5442105b611bd0576040517f08c379a0000000000000000000000000000000000000000000000000000000008152600401611bc7906127d3565b60405180910390fd5b8060008111611c14576040517f08c379a0000000000000000000000000000000000000000000000000000000008152600401611c0b906126d3565b60405180910390fd5b6000600460008381526020019081526020016000206000015414611c6d576040517f08c379a0000000000000000000000000000000000000000000000000000000008152600401611c6490612733565b60405180910390fd5b6040518060600160405280838152602001848152602001600081525060046000848152602001908152602001600020600082015181600001556020820151816001019080519060200190611cc2929190611e2b565b506040820151816002015590505060016000815480929190611ce390612ba2565b9190505550505050565b80600681604051611cfe919061254b565b908152602001604051809103902060009054906101000a900460ff1615611d5a576040517f08c379a0000000000000000000000000000000000000000000000000000000008152600401611d5190612753565b60405180910390fd5b5050565b828054611d6a90612b3f565b90600052602060002090601f016020900481019282611d8c5760008555611dda565b82601f10611d9d5780548555611dda565b82800160010185558215611dda57600052602060002091601f016020900482015b82811115611dd9578254825591600101919060010190611dbe565b5b509050611de79190611ed2565b5090565b508054611df790612b3f565b6000825580601f10611e095750611e28565b601f016020900490600052602060002090810190611e279190611ed2565b5b50565b828054611e3790612b3f565b90600052602060002090601f016020900481019282611e595760008555611ea0565b82601f10611e7257805160ff1916838001178555611ea0565b82800160010185558215611ea0579182015b82811115611e9f578251825591602001919060010190611e84565b5b509050611ead9190611ed2565b5090565b60405180606001604052806000815260200160608152602001600081525090565b5b80821115611eeb576000816000905550600101611ed3565b5090565b6000611f02611efd84612911565b6128ec565b905082815260208101848484011115611f1a57600080fd5b611f25848285612ad3565b509392505050565b600082601f830112611f3e57600080fd5b8135611f4e848260208601611eef565b91505092915050565b600081359050611f6681612fd4565b92915050565b600060208284031215611f7e57600080fd5b600082013567ffffffffffffffff811115611f9857600080fd5b611fa484828501611f2d565b91505092915050565b60008060408385031215611fc057600080fd5b600083013567ffffffffffffffff811115611fda57600080fd5b611fe685828601611f2d565b9250506020611ff785828601611f57565b9150509250929050565b60006020828403121561201357600080fd5b600061202184828501611f57565b91505092915050565b6000806040838503121561203d57600080fd5b600061204b85828601611f57565b925050602083013567ffffffffffffffff81111561206857600080fd5b61207485828601611f2d565b9150509250929050565b600061208a83836121ae565b905092915050565b600061209e83836124dd565b905092915050565b6120af81612a8b565b82525050565b60006120c082612977565b6120ca81856129b2565b9350836020820285016120dc85612942565b8060005b8581101561211857848403895281516120f9858261207e565b945061210483612998565b925060208a019950506001810190506120e0565b50829750879550505050505092915050565b600061213582612982565b61213f81856129c3565b93508360208202850161215185612952565b8060005b8581101561218d578484038952815161216e8582612092565b9450612179836129a5565b925060208a01995050600181019050612155565b50829750879550505050505092915050565b6121a881612a9d565b82525050565b60006121b98261298d565b6121c381856129d4565b93506121d3818560208601612ae2565b6121dc81612c78565b840191505092915050565b60006121f28261298d565b6121fc81856129e5565b935061220c818560208601612ae2565b61221581612c78565b840191505092915050565b600061222b8261298d565b61223581856129f6565b9350612245818560208601612ae2565b80840191505092915050565b6000815461225e81612b3f565b61226881866129f6565b945060018216600081146122835760018114612294576122c7565b60ff198316865281860193506122c7565b61229d85612962565b60005b838110156122bf578154818901526001820191506020810190506122a0565b838801955050505b50505092915050565b60006122dd600f836129e5565b91506122e882612c89565b602082019050919050565b60006123006026836129e5565b915061230b82612cb2565b604082019050919050565b60006123236024836129e5565b915061232e82612d01565b604082019050919050565b60006123466021836129e5565b915061235182612d50565b604082019050919050565b60006123696025836129e5565b915061237482612d9f565b604082019050919050565b600061238c6011836129e5565b915061239782612dee565b602082019050919050565b60006123af6015836129e5565b91506123ba82612e17565b602082019050919050565b60006123d26014836129e5565b91506123dd82612e40565b602082019050919050565b60006123f56011836129e5565b915061240082612e69565b602082019050919050565b6000612418601a836129e5565b915061242382612e92565b602082019050919050565b600061243b6022836129e5565b915061244682612ebb565b604082019050919050565b600061245e6021836129e5565b915061246982612f0a565b604082019050919050565b60006124816019836129e5565b915061248c82612f59565b602082019050919050565b60006124a46014836129e5565b91506124af82612f82565b602082019050919050565b60006124c76016836129e5565b91506124d282612fab565b602082019050919050565b60006060830160008301516124f5600086018261252d565b506020830151848203602086015261250d82826121ae565b9150506040830151612522604086018261252d565b508091505092915050565b61253681612ac9565b82525050565b61254581612ac9565b82525050565b60006125578284612220565b915081905092915050565b600061256e8284612251565b915081905092915050565b600060208201905061258e60008301846120a6565b92915050565b60006040820190506125a960008301856120a6565b6125b6602083018461253c565b9392505050565b600060208201905081810360008301526125d781846120b5565b905092915050565b600060208201905081810360008301526125f9818461212a565b905092915050565b6000602082019050612616600083018461219f565b92915050565b6000606082019050612631600083018661219f565b61263e602083018561253c565b818103604083015261265081846121e7565b9050949350505050565b600060608201905061266f600083018661219f565b61267c602083018561253c565b612689604083018461253c565b949350505050565b600060208201905081810360008301526126ab81846121e7565b905092915050565b600060208201905081810360008301526126cc816122d0565b9050919050565b600060208201905081810360008301526126ec816122f3565b9050919050565b6000602082019050818103600083015261270c81612316565b9050919050565b6000602082019050818103600083015261272c81612339565b9050919050565b6000602082019050818103600083015261274c8161235c565b9050919050565b6000602082019050818103600083015261276c8161237f565b9050919050565b6000602082019050818103600083015261278c816123a2565b9050919050565b600060208201905081810360008301526127ac816123c5565b9050919050565b600060208201905081810360008301526127cc816123e8565b9050919050565b600060208201905081810360008301526127ec8161240b565b9050919050565b6000602082019050818103600083015261280c8161242e565b9050919050565b6000602082019050818103600083015261282c81612451565b9050919050565b6000602082019050818103600083015261284c81612474565b9050919050565b6000602082019050818103600083015261286c81612497565b9050919050565b6000602082019050818103600083015261288c816124ba565b9050919050565b60006020820190506128a8600083018461253c565b92915050565b60006060820190506128c3600083018661253c565b81810360208301526128d581856121e7565b90506128e4604083018461253c565b949350505050565b60006128f6612907565b90506129028282612b71565b919050565b6000604051905090565b600067ffffffffffffffff82111561292c5761292b612c49565b5b61293582612c78565b9050602081019050919050565b6000819050602082019050919050565b6000819050602082019050919050565b60008190508160005260206000209050919050565b600081519050919050565b600081519050919050565b600081519050919050565b6000602082019050919050565b6000602082019050919050565b600082825260208201905092915050565b600082825260208201905092915050565b600082825260208201905092915050565b600082825260208201905092915050565b600081905092915050565b6000612a0c82612ac9565b9150612a1783612ac9565b9250827fffffffffffffffffffffffffffffffffffffffffffffffffffffffffffffffff03821115612a4c57612a4b612beb565b5b828201905092915050565b6000612a6282612ac9565b9150612a6d83612ac9565b925082821015612a8057612a7f612beb565b5b828203905092915050565b6000612a9682612aa9565b9050919050565b60008115159050919050565b600073ffffffffffffffffffffffffffffffffffffffff82169050919050565b6000819050919050565b82818337600083830152505050565b60005b83811015612b00578082015181840152602081019050612ae5565b83811115612b0f576000848401525b50505050565b6000612b2082612ac9565b91506000821415612b3457612b33612beb565b5b600182039050919050565b60006002820490506001821680612b5757607f821691505b60208210811415612b6b57612b6a612c1a565b5b50919050565b612b7a82612c78565b810181811067ffffffffffffffff82111715612b9957612b98612c49565b5b80604052505050565b6000612bad82612ac9565b91507fffffffffffffffffffffffffffffffffffffffffffffffffffffffffffffffff821415612be057612bdf612beb565b5b600182019050919050565b7f4e487b7100000000000000000000000000000000000000000000000000000000600052601160045260246000fd5b7f4e487b7100000000000000000000000000000000000000000000000000000000600052602260045260246000fd5b7f4e487b7100000000000000000000000000000000000000000000000000000000600052604160045260246000fd5b6000601f19601f8301169050919050565b7f4e494b2069732072657175697265640000000000000000000000000000000000600082015250565b7f43616e646964617465204944206d75737420626520677265617465722074686160008201527f6e207a65726f0000000000000000000000000000000000000000000000000000602082015250565b7f43616e64696461746520776974682074686973204944206973206e6f7420657860008201527f6973747300000000000000000000000000000000000000000000000000000000602082015250565b7f4f6e6c79206f776e65722063616e2063616c6c20746869732066756e6374696f60008201527f6e00000000000000000000000000000000000000000000000000000000000000602082015250565b7f43616e6469646174652077697468207468697320494420616c7265616479206560008201527f7869737473000000000000000000000000000000000000000000000000000000602082015250565b7f4e494b2069732072656769737465726564000000000000000000000000000000600082015250565b7f4e494b206973206e6f7420726567697374657265640000000000000000000000600082015250565b7f566f74696e67206973206e6f7420616374697665000000000000000000000000600082015250565b7f4f776e65722063616e6e6f7420766f7465000000000000000000000000000000600082015250565b7f566f74696e672068617320616c72656164792073746172746564000000000000600082015250565b7f4475726174696f6e206d7573742062652067726561746572207468616e207a6560008201527f726f000000000000000000000000000000000000000000000000000000000000602082015250565b7f4e494b2068617320616c7265616479206265656e207573656420746f20766f7460008201527f6500000000000000000000000000000000000000000000000000000000000000602082015250565b7f4e494b20697320616c7265616479207265676973746572656400000000000000600082015250565b7f496e76616c69642063616e646964617465204944000000000000000000000000600082015250565b7f596f75206861766520616c726561647920766f74656400000000000000000000600082015250565b612fdd81612ac9565b8114612fe857600080fd5b5056fea2646970667358221220b98320031df54836dbe3549f0038f52f226089be2ebc59d081fb30361b5704ab64736f6c63430008040033",
  "immutableReferences": {},
  "source": "// SPDX-License-Identifier: MIT\r\npragma solidity ^0.8.4;\r\n\r\ncontract VotingSystem {\r\n    struct Candidate {\r\n        uint256 id;\r\n        string name;\r\n        uint256 voteCount;\r\n    }\r\n\r\n    struct Voter {\r\n        bool hasVoted;\r\n        uint256 candidateId;\r\n        string NIK;\r\n    }\r\n\r\n    address public owner;\r\n    uint256 public candidateCount;\r\n    uint256 public voterCount;\r\n    uint public votesCount;\r\n    mapping(uint256 => Candidate) public candidates;\r\n    mapping(address => Voter) private voters;\r\n    mapping(string => bool) private registeredNIKs;\r\n    mapping(string => bool) private usedNIKs;\r\n    string[] public NIKs;\r\n\r\n    bool public votingStarted;\r\n    uint public startVotingTime;\r\n    uint public endVotingTime;\r\n    \r\n    event VotingStarted(uint startTime);\r\n    event VotingEnded(uint endTime);\r\n    event Voted(address voter, uint256 candidateId);\r\n\r\n    modifier onlyOwner() {\r\n        require(msg.sender == owner, \"Only owner can call this function\");\r\n        _;\r\n    }\r\n\r\n    modifier notOwner() {\r\n        require(msg.sender != owner, \"Owner cannot vote\");\r\n        _;\r\n    }\r\n\r\n    modifier hasNotVoted() {\r\n        require(!voters[msg.sender].hasVoted, \"You have already voted\");\r\n        _;\r\n    }\r\n\r\n    modifier validNIK(string memory _NIK) {\r\n        require(registeredNIKs[_NIK], \"NIK is not registered\");\r\n        _;\r\n    }\r\n    modifier isNIKExist(string memory _NIK){\r\n        require(!registeredNIKs[_NIK], \"NIK is registered\");\r\n        _;\r\n    }\r\n\r\n    modifier hasUsedNIK(string memory _NIK) {\r\n        require(!usedNIKs[_NIK],\r\n            \"NIK has already been used to vote\"\r\n        );\r\n        _;\r\n    }\r\n    modifier validCandidate(uint256 _candidateId){\r\n        require(_candidateId > 0, \"Candidate ID must be greater than zero\");\r\n        require(\r\n            candidates[_candidateId].id == 0,\r\n            \"Candidate with this ID already exists\"\r\n        );\r\n        _;\r\n    }\r\n    modifier isCandidateExist(uint256 _candidateId){\r\n        require(\r\n            candidates[_candidateId].id != 0,\r\n            \"Candidate with this ID is not exists\"\r\n        );\r\n        _;\r\n    }\r\n\r\n    modifier checkEndVoting() {\r\n        if (votingStarted && block.timestamp > endVotingTime) {\r\n            votingStarted = false;\r\n            emit VotingEnded(block.timestamp);\r\n        }\r\n        _;\r\n    }\r\n    modifier onlyBeforeVotingStart(){\r\n        require(!votingStarted || block.timestamp < startVotingTime, \"Voting has already started\");\r\n        _;\r\n    }\r\n\r\n    modifier onlyDuringVoting() {\r\n        require(votingStarted && block.timestamp >= startVotingTime && block.timestamp <= endVotingTime, \"Voting is not active\");\r\n        _;\r\n    }\r\n\r\n    modifier onlyAfterVotingEnd() {\r\n        require(votingStarted && block.timestamp > endVotingTime, \"Voting has not ended yet\");\r\n        _;\r\n    }\r\n\r\n    constructor() {\r\n        owner = msg.sender;\r\n    }\r\n\r\n    function startVoting(uint256 _duration) public onlyOwner onlyBeforeVotingStart {\r\n        require(_duration > 0, \"Duration must be greater than zero\");\r\n        votingStarted = true;\r\n        startVotingTime = block.timestamp;\r\n        endVotingTime = block.timestamp + _duration;\r\n        emit VotingStarted(startVotingTime);\r\n    }\r\n\r\n    function endVoting() public onlyOwner onlyDuringVoting {\r\n        votingStarted = false;\r\n        emit VotingEnded(block.timestamp);\r\n    }\r\n\r\n    function addCandidate(string memory _name, uint256 _candidateId)\r\n        public\r\n        onlyOwner\r\n        onlyBeforeVotingStart\r\n        validCandidate(_candidateId)\r\n    {\r\n        candidates[_candidateId] = Candidate(_candidateId, _name, 0);\r\n        candidateCount++;\r\n    }\r\n\r\n    function checkIfNIKNotRegistered(string memory _NIK )public isNIKExist(_NIK){\r\n        \r\n    }\r\n    function checkIfNIKRegistered(string memory _NIK )public validNIK(_NIK){\r\n        \r\n    }\r\n    function checkIfNIKHasUsed(string memory _NIK) public hasUsedNIK(_NIK){\r\n        \r\n    }\r\n    \r\n    function checkIfCandidateValid(uint256 _candidateId)public isCandidateExist(_candidateId){\r\n        \r\n    }\r\n\r\n    function addNIK(string memory _NIK) public onlyOwner onlyBeforeVotingStart {\r\n        require(bytes(_NIK).length > 0, \"NIK is required\");\r\n        require(!registeredNIKs[_NIK], \"NIK is already registered\");\r\n        registeredNIKs[_NIK] = true;\r\n        NIKs.push(_NIK);\r\n        voterCount++;\r\n    }\r\n\r\n    function removeNIK(string memory _NIK) public onlyOwner onlyBeforeVotingStart hasUsedNIK(_NIK) validNIK(_NIK) {\r\n        registeredNIKs[_NIK] = false;\r\n\r\n        for (uint256 i = 0; i < NIKs.length; i++) {\r\n            if (keccak256(abi.encodePacked(NIKs[i])) == keccak256(abi.encodePacked(_NIK))) {\r\n                NIKs[i] = NIKs[NIKs.length - 1];\r\n                NIKs.pop();\r\n                voterCount--;\r\n                break;\r\n            }\r\n        }\r\n    }\r\n\r\n    function vote(uint256 _candidateId, string memory _NIK)\r\n        public\r\n        notOwner\r\n        checkEndVoting\r\n        onlyDuringVoting\r\n        hasNotVoted\r\n        validNIK(_NIK)\r\n        hasUsedNIK(_NIK)\r\n    {\r\n        require(\r\n            _candidateId > 0 && _candidateId <= candidateCount,\r\n            \"Invalid candidate ID\"\r\n        );\r\n\r\n        voters[msg.sender] = Voter({\r\n            hasVoted: true,\r\n            candidateId: _candidateId,\r\n            NIK: _NIK\r\n        });\r\n\r\n        candidates[_candidateId].voteCount++;\r\n        usedNIKs[_NIK] = true;\r\n        votesCount++;\r\n        emit Voted(msg.sender, _candidateId);\r\n    }\r\n\r\n    function getCandidate(uint256 _candidateId)\r\n        public\r\n        view\r\n        returns (\r\n            uint256,\r\n            string memory,\r\n            uint256\r\n        )\r\n    {\r\n        require(\r\n            _candidateId > 0,\r\n            \"Invalid candidate ID\"\r\n        );\r\n        Candidate memory candidate = candidates[_candidateId];\r\n        return (candidate.id, candidate.name, candidate.voteCount);\r\n    }\r\n\r\n    function getAllCandidates() public view returns (Candidate[] memory) {\r\n        Candidate[] memory candidateList = new Candidate[](candidateCount);\r\n        for (uint256 i = 1; i <= candidateCount; i++) {\r\n            candidateList[i - 1] = candidates[i];\r\n        }\r\n        return candidateList;\r\n    }\r\n\r\n    function getVoter()\r\n        public\r\n        view\r\n        returns (\r\n            bool,\r\n            uint256,\r\n            string memory\r\n        ) \r\n    {\r\n        Voter memory voter = voters[msg.sender];\r\n        return (voter.hasVoted, voter.candidateId, voter.NIK);\r\n    }\r\n\r\n    function getAllNIKs() public view returns (string[] memory) {\r\n        return NIKs;\r\n    }\r\n\r\n    function getVoterCount() public view returns (uint256) {\r\n        return voterCount;\r\n    }\r\n\r\n    function getVotesCount() public view returns (uint256){\r\n        return votesCount;\r\n    }\r\n\r\n    function getVotingStatus() public view returns (bool, uint, uint){\r\n        return (votingStarted, startVotingTime, endVotingTime);\r\n    }\r\n    \r\n    function checkIsVotingEnd() public {\r\n        if (votingStarted && block.timestamp > endVotingTime) {\r\n            votingStarted = false;\r\n            emit VotingEnded(block.timestamp);\r\n        }\r\n    }\r\n    \r\n}",
  "sourcePath": "F:\\1Project\\suaradesamu\\truffle\\contracts\\VotingSystem.sol",
  "compiler": {
    "name": "solc",
    "version": "0.8.4+commit.c7e474f2.Emscripten.clang"
  },
  "schemaVersion": "3.4.16",
  "updatedAt": "2024-07-02T08:33:23.951Z",
  "networkType": "ethereum",
  "devdoc": {
    "kind": "dev",
    "methods": {},
    "version": 1
  },
  "userdoc": {
    "kind": "user",
    "methods": {},
    "version": 1
  }
}